{
  "contractName": "TicketNFT",
  "abi": [
    {
      "inputs": [],
      "stateMutability": "nonpayable",
      "type": "constructor"
    },
    {
      "anonymous": false,
      "inputs": [
        {
          "indexed": true,
          "internalType": "address",
          "name": "owner",
          "type": "address"
        },
        {
          "indexed": true,
          "internalType": "address",
          "name": "approved",
          "type": "address"
        },
        {
          "indexed": true,
          "internalType": "uint256",
          "name": "tokenId",
          "type": "uint256"
        }
      ],
      "name": "Approval",
      "type": "event"
    },
    {
      "anonymous": false,
      "inputs": [
        {
          "indexed": true,
          "internalType": "address",
          "name": "owner",
          "type": "address"
        },
        {
          "indexed": true,
          "internalType": "address",
          "name": "operator",
          "type": "address"
        },
        {
          "indexed": false,
          "internalType": "bool",
          "name": "approved",
          "type": "bool"
        }
      ],
      "name": "ApprovalForAll",
      "type": "event"
    },
    {
      "anonymous": false,
      "inputs": [
        {
          "indexed": false,
          "internalType": "uint256",
          "name": "_fromTokenId",
          "type": "uint256"
        },
        {
          "indexed": false,
          "internalType": "uint256",
          "name": "_toTokenId",
          "type": "uint256"
        }
      ],
      "name": "BatchMetadataUpdate",
      "type": "event"
    },
    {
      "anonymous": false,
      "inputs": [
        {
          "indexed": false,
          "internalType": "uint256",
          "name": "_tokenId",
          "type": "uint256"
        }
      ],
      "name": "MetadataUpdate",
      "type": "event"
    },
    {
      "anonymous": false,
      "inputs": [
        {
          "indexed": true,
          "internalType": "address",
          "name": "from",
          "type": "address"
        },
        {
          "indexed": true,
          "internalType": "address",
          "name": "to",
          "type": "address"
        },
        {
          "indexed": true,
          "internalType": "uint256",
          "name": "tokenId",
          "type": "uint256"
        }
      ],
      "name": "Transfer",
      "type": "event"
    },
    {
      "inputs": [
        {
          "internalType": "address",
          "name": "to",
          "type": "address"
        },
        {
          "internalType": "uint256",
          "name": "tokenId",
          "type": "uint256"
        }
      ],
      "name": "approve",
      "outputs": [],
      "stateMutability": "nonpayable",
      "type": "function"
    },
    {
      "inputs": [
        {
          "internalType": "address",
          "name": "owner",
          "type": "address"
        }
      ],
      "name": "balanceOf",
      "outputs": [
        {
          "internalType": "uint256",
          "name": "",
          "type": "uint256"
        }
      ],
      "stateMutability": "view",
      "type": "function"
    },
    {
      "inputs": [
        {
          "internalType": "uint256",
          "name": "tokenId",
          "type": "uint256"
        }
      ],
      "name": "getApproved",
      "outputs": [
        {
          "internalType": "address",
          "name": "",
          "type": "address"
        }
      ],
      "stateMutability": "view",
      "type": "function"
    },
    {
      "inputs": [
        {
          "internalType": "address",
          "name": "owner",
          "type": "address"
        },
        {
          "internalType": "address",
          "name": "operator",
          "type": "address"
        }
      ],
      "name": "isApprovedForAll",
      "outputs": [
        {
          "internalType": "bool",
          "name": "",
          "type": "bool"
        }
      ],
      "stateMutability": "view",
      "type": "function"
    },
    {
      "inputs": [],
      "name": "name",
      "outputs": [
        {
          "internalType": "string",
          "name": "",
          "type": "string"
        }
      ],
      "stateMutability": "view",
      "type": "function"
    },
    {
      "inputs": [
        {
          "internalType": "uint256",
          "name": "tokenId",
          "type": "uint256"
        }
      ],
      "name": "ownerOf",
      "outputs": [
        {
          "internalType": "address",
          "name": "",
          "type": "address"
        }
      ],
      "stateMutability": "view",
      "type": "function"
    },
    {
      "inputs": [
        {
          "internalType": "address",
          "name": "from",
          "type": "address"
        },
        {
          "internalType": "address",
          "name": "to",
          "type": "address"
        },
        {
          "internalType": "uint256",
          "name": "tokenId",
          "type": "uint256"
        }
      ],
      "name": "safeTransferFrom",
      "outputs": [],
      "stateMutability": "nonpayable",
      "type": "function"
    },
    {
      "inputs": [
        {
          "internalType": "address",
          "name": "from",
          "type": "address"
        },
        {
          "internalType": "address",
          "name": "to",
          "type": "address"
        },
        {
          "internalType": "uint256",
          "name": "tokenId",
          "type": "uint256"
        },
        {
          "internalType": "bytes",
          "name": "data",
          "type": "bytes"
        }
      ],
      "name": "safeTransferFrom",
      "outputs": [],
      "stateMutability": "nonpayable",
      "type": "function"
    },
    {
      "inputs": [
        {
          "internalType": "address",
          "name": "operator",
          "type": "address"
        },
        {
          "internalType": "bool",
          "name": "approved",
          "type": "bool"
        }
      ],
      "name": "setApprovalForAll",
      "outputs": [],
      "stateMutability": "nonpayable",
      "type": "function"
    },
    {
      "inputs": [
        {
          "internalType": "bytes4",
          "name": "interfaceId",
          "type": "bytes4"
        }
      ],
      "name": "supportsInterface",
      "outputs": [
        {
          "internalType": "bool",
          "name": "",
          "type": "bool"
        }
      ],
      "stateMutability": "view",
      "type": "function"
    },
    {
      "inputs": [],
      "name": "symbol",
      "outputs": [
        {
          "internalType": "string",
          "name": "",
          "type": "string"
        }
      ],
      "stateMutability": "view",
      "type": "function"
    },
    {
      "inputs": [
        {
          "internalType": "uint256",
          "name": "",
          "type": "uint256"
        }
      ],
      "name": "ticketPrices",
      "outputs": [
        {
          "internalType": "uint256",
          "name": "",
          "type": "uint256"
        }
      ],
      "stateMutability": "view",
      "type": "function"
    },
    {
      "inputs": [
        {
          "internalType": "uint256",
          "name": "tokenId",
          "type": "uint256"
        }
      ],
      "name": "tokenURI",
      "outputs": [
        {
          "internalType": "string",
          "name": "",
          "type": "string"
        }
      ],
      "stateMutability": "view",
      "type": "function"
    },
    {
      "inputs": [
        {
          "internalType": "address",
          "name": "from",
          "type": "address"
        },
        {
          "internalType": "address",
          "name": "to",
          "type": "address"
        },
        {
          "internalType": "uint256",
          "name": "tokenId",
          "type": "uint256"
        }
      ],
      "name": "transferFrom",
      "outputs": [],
      "stateMutability": "nonpayable",
      "type": "function"
    },
    {
      "inputs": [
        {
          "internalType": "address",
          "name": "recipient",
          "type": "address"
        },
        {
          "internalType": "string",
          "name": "tokenURI",
          "type": "string"
        },
        {
          "internalType": "uint256",
          "name": "price",
          "type": "uint256"
        }
      ],
      "name": "mintTicket",
      "outputs": [
        {
          "internalType": "uint256",
          "name": "",
          "type": "uint256"
        }
      ],
      "stateMutability": "nonpayable",
      "type": "function"
    },
    {
      "inputs": [
        {
          "internalType": "uint256",
          "name": "ticketId",
          "type": "uint256"
        }
      ],
      "name": "buyTicket",
      "outputs": [],
      "stateMutability": "payable",
      "type": "function"
    }
  ],
  "bytecode": "0x608060405234801562000010575f80fd5b506040518060400160405280600981526020017f4e46545469636b657400000000000000000000000000000000000000000000008152506040518060400160405280600381526020017f544b540000000000000000000000000000000000000000000000000000000000815250815f90816200008d91906200030c565b5080600190816200009f91906200030c565b505050620003f0565b5f81519050919050565b7f4e487b71000000000000000000000000000000000000000000000000000000005f52604160045260245ffd5b7f4e487b71000000000000000000000000000000000000000000000000000000005f52602260045260245ffd5b5f60028204905060018216806200012457607f821691505b6020821081036200013a5762000139620000df565b5b50919050565b5f819050815f5260205f209050919050565b5f6020601f8301049050919050565b5f82821b905092915050565b5f600883026200019e7fffffffffffffffffffffffffffffffffffffffffffffffffffffffffffffffff8262000161565b620001aa868362000161565b95508019841693508086168417925050509392505050565b5f819050919050565b5f819050919050565b5f620001f4620001ee620001e884620001c2565b620001cb565b620001c2565b9050919050565b5f819050919050565b6200020f83620001d4565b620002276200021e82620001fb565b8484546200016d565b825550505050565b5f90565b6200023d6200022f565b6200024a81848462000204565b505050565b5b818110156200027157620002655f8262000233565b60018101905062000250565b5050565b601f821115620002c0576200028a8162000140565b620002958462000152565b81016020851015620002a5578190505b620002bd620002b48562000152565b8301826200024f565b50505b505050565b5f82821c905092915050565b5f620002e25f1984600802620002c5565b1980831691505092915050565b5f620002fc8383620002d1565b9150826002028217905092915050565b6200031782620000a8565b67ffffffffffffffff811115620003335762000332620000b2565b5b6200033f82546200010c565b6200034c82828562000275565b5f60209050601f83116001811462000382575f84156200036d578287015190505b620003798582620002ef565b865550620003e8565b601f198416620003928662000140565b5f5b82811015620003bb5784890151825560018201915060208501945060208101905062000394565b86831015620003db5784890151620003d7601f891682620002d1565b8355505b6001600288020188555050505b505050505050565b612d2c80620003fe5f395ff3fe6080604052600436106100f2575f3560e01c806370a0823111610089578063c87b56dd11610058578063c87b56dd1461031e578063cf7a31411461035a578063e44d311b14610396578063e985e9c5146103d2576100f2565b806370a082311461026857806395d89b41146102a4578063a22cb465146102ce578063b88d4fde146102f6576100f2565b806323b872dd116100c557806323b872dd146101c057806342842e0e146101e85780636352211e1461021057806367dd74ca1461024c576100f2565b806301ffc9a7146100f657806306fdde0314610132578063081812fc1461015c578063095ea7b314610198575b5f80fd5b348015610101575f80fd5b5061011c60048036038101906101179190611bc3565b61040e565b6040516101299190611c08565b60405180910390f35b34801561013d575f80fd5b5061014661046e565b6040516101539190611cab565b60405180910390f35b348015610167575f80fd5b50610182600480360381019061017d9190611cfe565b6104fd565b60405161018f9190611d68565b60405180910390f35b3480156101a3575f80fd5b506101be60048036038101906101b99190611dab565b61053f565b005b3480156101cb575f80fd5b506101e660048036038101906101e19190611de9565b610655565b005b3480156101f3575f80fd5b5061020e60048036038101906102099190611de9565b6106b5565b005b34801561021b575f80fd5b5061023660048036038101906102319190611cfe565b6106d4565b6040516102439190611d68565b60405180910390f35b61026660048036038101906102619190611cfe565b610758565b005b348015610273575f80fd5b5061028e60048036038101906102899190611e39565b61087e565b60405161029b9190611e73565b60405180910390f35b3480156102af575f80fd5b506102b8610932565b6040516102c59190611cab565b60405180910390f35b3480156102d9575f80fd5b506102f460048036038101906102ef9190611eb6565b6109c2565b005b348015610301575f80fd5b5061031c60048036038101906103179190612020565b6109d8565b005b348015610329575f80fd5b50610344600480360381019061033f9190611cfe565b610a3a565b6040516103519190611cab565b60405180910390f35b348015610365575f80fd5b50610380600480360381019061037b919061213e565b610b44565b60405161038d9190611e73565b60405180910390f35b3480156103a1575f80fd5b506103bc60048036038101906103b79190611cfe565b610b91565b6040516103c99190611e73565b60405180910390f35b3480156103dd575f80fd5b506103f860048036038101906103f391906121aa565b610ba6565b6040516104059190611c08565b60405180910390f35b5f634906490660e01b7bffffffffffffffffffffffffffffffffffffffffffffffffffffffff1916827bffffffffffffffffffffffffffffffffffffffffffffffffffffffff19161480610467575061046682610c34565b5b9050919050565b60605f805461047c90612215565b80601f01602080910402602001604051908101604052809291908181526020018280546104a890612215565b80156104f35780601f106104ca576101008083540402835291602001916104f3565b820191905f5260205f20905b8154815290600101906020018083116104d657829003601f168201915b5050505050905090565b5f61050782610d15565b60045f8381526020019081526020015f205f9054906101000a900473ffffffffffffffffffffffffffffffffffffffff169050919050565b5f610549826106d4565b90508073ffffffffffffffffffffffffffffffffffffffff168373ffffffffffffffffffffffffffffffffffffffff16036105b9576040517f08c379a00000000000000000000000000000000000000000000000000000000081526004016105b0906122b5565b60405180910390fd5b8073ffffffffffffffffffffffffffffffffffffffff166105d8610d60565b73ffffffffffffffffffffffffffffffffffffffff161480610607575061060681610601610d60565b610ba6565b5b610646576040517f08c379a000000000000000000000000000000000000000000000000000000000815260040161063d90612343565b60405180910390fd5b6106508383610d67565b505050565b610666610660610d60565b82610e1d565b6106a5576040517f08c379a000000000000000000000000000000000000000000000000000000000815260040161069c906123d1565b60405180910390fd5b6106b0838383610eb1565b505050565b6106cf83838360405180602001604052805f8152506109d8565b505050565b5f806106df8361119d565b90505f73ffffffffffffffffffffffffffffffffffffffff168173ffffffffffffffffffffffffffffffffffffffff160361074f576040517f08c379a000000000000000000000000000000000000000000000000000000000815260040161074690612439565b60405180910390fd5b80915050919050565b5f610762826106d4565b90505f60085f8481526020019081526020015f20549050803410156107bc576040517f08c379a00000000000000000000000000000000000000000000000000000000081526004016107b3906124a1565b60405180910390fd5b8173ffffffffffffffffffffffffffffffffffffffff163373ffffffffffffffffffffffffffffffffffffffff160361082a576040517f08c379a000000000000000000000000000000000000000000000000000000000815260040161082190612509565b60405180910390fd5b8173ffffffffffffffffffffffffffffffffffffffff166108fc3490811502906040515f60405180830381858888f1935050505015801561086d573d5f803e3d5ffd5b50610879823385610eb1565b505050565b5f8073ffffffffffffffffffffffffffffffffffffffff168273ffffffffffffffffffffffffffffffffffffffff16036108ed576040517f08c379a00000000000000000000000000000000000000000000000000000000081526004016108e490612597565b60405180910390fd5b60035f8373ffffffffffffffffffffffffffffffffffffffff1673ffffffffffffffffffffffffffffffffffffffff1681526020019081526020015f20549050919050565b60606001805461094190612215565b80601f016020809104026020016040519081016040528092919081815260200182805461096d90612215565b80156109b85780601f1061098f576101008083540402835291602001916109b8565b820191905f5260205f20905b81548152906001019060200180831161099b57829003601f168201915b5050505050905090565b6109d46109cd610d60565b83836111d6565b5050565b6109e96109e3610d60565b83610e1d565b610a28576040517f08c379a0000000000000000000000000000000000000000000000000000000008152600401610a1f906123d1565b60405180910390fd5b610a348484848461133d565b50505050565b6060610a4582610d15565b5f60065f8481526020019081526020015f208054610a6290612215565b80601f0160208091040260200160405190810160405280929190818152602001828054610a8e90612215565b8015610ad95780601f10610ab057610100808354040283529160200191610ad9565b820191905f5260205f20905b815481529060010190602001808311610abc57829003601f168201915b505050505090505f610ae9611399565b90505f815103610afd578192505050610b3f565b5f82511115610b31578082604051602001610b199291906125ef565b60405160208183030381529060405292505050610b3f565b610b3a846113af565b925050505b919050565b5f610b4f6007611414565b5f610b5a6007611428565b9050610b668582611434565b610b708185611647565b8260085f8381526020019081526020015f2081905550809150509392505050565b6008602052805f5260405f205f915090505481565b5f60055f8473ffffffffffffffffffffffffffffffffffffffff1673ffffffffffffffffffffffffffffffffffffffff1681526020019081526020015f205f8373ffffffffffffffffffffffffffffffffffffffff1673ffffffffffffffffffffffffffffffffffffffff1681526020019081526020015f205f9054906101000a900460ff16905092915050565b5f7f80ac58cd000000000000000000000000000000000000000000000000000000007bffffffffffffffffffffffffffffffffffffffffffffffffffffffff1916827bffffffffffffffffffffffffffffffffffffffffffffffffffffffff19161480610cfe57507f5b5e139f000000000000000000000000000000000000000000000000000000007bffffffffffffffffffffffffffffffffffffffffffffffffffffffff1916827bffffffffffffffffffffffffffffffffffffffffffffffffffffffff1916145b80610d0e5750610d0d826116e9565b5b9050919050565b610d1e81611752565b610d5d576040517f08c379a0000000000000000000000000000000000000000000000000000000008152600401610d5490612439565b60405180910390fd5b50565b5f33905090565b8160045f8381526020019081526020015f205f6101000a81548173ffffffffffffffffffffffffffffffffffffffff021916908373ffffffffffffffffffffffffffffffffffffffff160217905550808273ffffffffffffffffffffffffffffffffffffffff16610dd7836106d4565b73ffffffffffffffffffffffffffffffffffffffff167f8c5be1e5ebec7d5bd14f71427d1e84f3dd0314c0f7b2291e5b200ac8c7c3b92560405160405180910390a45050565b5f80610e28836106d4565b90508073ffffffffffffffffffffffffffffffffffffffff168473ffffffffffffffffffffffffffffffffffffffff161480610e6a5750610e698185610ba6565b5b80610ea857508373ffffffffffffffffffffffffffffffffffffffff16610e90846104fd565b73ffffffffffffffffffffffffffffffffffffffff16145b91505092915050565b8273ffffffffffffffffffffffffffffffffffffffff16610ed1826106d4565b73ffffffffffffffffffffffffffffffffffffffff1614610f27576040517f08c379a0000000000000000000000000000000000000000000000000000000008152600401610f1e90612682565b60405180910390fd5b5f73ffffffffffffffffffffffffffffffffffffffff168273ffffffffffffffffffffffffffffffffffffffff1603610f95576040517f08c379a0000000000000000000000000000000000000000000000000000000008152600401610f8c90612710565b60405180910390fd5b610fa28383836001611792565b8273ffffffffffffffffffffffffffffffffffffffff16610fc2826106d4565b73ffffffffffffffffffffffffffffffffffffffff1614611018576040517f08c379a000000000000000000000000000000000000000000000000000000000815260040161100f90612682565b60405180910390fd5b60045f8281526020019081526020015f205f6101000a81549073ffffffffffffffffffffffffffffffffffffffff0219169055600160035f8573ffffffffffffffffffffffffffffffffffffffff1673ffffffffffffffffffffffffffffffffffffffff1681526020019081526020015f205f8282540392505081905550600160035f8473ffffffffffffffffffffffffffffffffffffffff1673ffffffffffffffffffffffffffffffffffffffff1681526020019081526020015f205f82825401925050819055508160025f8381526020019081526020015f205f6101000a81548173ffffffffffffffffffffffffffffffffffffffff021916908373ffffffffffffffffffffffffffffffffffffffff160217905550808273ffffffffffffffffffffffffffffffffffffffff168473ffffffffffffffffffffffffffffffffffffffff167fddf252ad1be2c89b69c2b068fc378daa952ba7f163c4a11628f55a4df523b3ef60405160405180910390a46111988383836001611798565b505050565b5f60025f8381526020019081526020015f205f9054906101000a900473ffffffffffffffffffffffffffffffffffffffff169050919050565b8173ffffffffffffffffffffffffffffffffffffffff168373ffffffffffffffffffffffffffffffffffffffff1603611244576040517f08c379a000000000000000000000000000000000000000000000000000000000815260040161123b90612778565b60405180910390fd5b8060055f8573ffffffffffffffffffffffffffffffffffffffff1673ffffffffffffffffffffffffffffffffffffffff1681526020019081526020015f205f8473ffffffffffffffffffffffffffffffffffffffff1673ffffffffffffffffffffffffffffffffffffffff1681526020019081526020015f205f6101000a81548160ff0219169083151502179055508173ffffffffffffffffffffffffffffffffffffffff168373ffffffffffffffffffffffffffffffffffffffff167f17307eab39ab6107e8899845ad3d59bd9653f200f220920489ca2b5937696c31836040516113309190611c08565b60405180910390a3505050565b611348848484610eb1565b6113548484848461179e565b611393576040517f08c379a000000000000000000000000000000000000000000000000000000000815260040161138a90612806565b60405180910390fd5b50505050565b606060405180602001604052805f815250905090565b60606113ba82610d15565b5f6113c3611399565b90505f8151116113e15760405180602001604052805f81525061140c565b806113eb84611920565b6040516020016113fc9291906125ef565b6040516020818303038152906040525b915050919050565b6001815f015f828254019250508190555050565b5f815f01549050919050565b5f73ffffffffffffffffffffffffffffffffffffffff168273ffffffffffffffffffffffffffffffffffffffff16036114a2576040517f08c379a00000000000000000000000000000000000000000000000000000000081526004016114999061286e565b60405180910390fd5b6114ab81611752565b156114eb576040517f08c379a00000000000000000000000000000000000000000000000000000000081526004016114e2906128d6565b60405180910390fd5b6114f85f83836001611792565b61150181611752565b15611541576040517f08c379a0000000000000000000000000000000000000000000000000000000008152600401611538906128d6565b60405180910390fd5b600160035f8473ffffffffffffffffffffffffffffffffffffffff1673ffffffffffffffffffffffffffffffffffffffff1681526020019081526020015f205f82825401925050819055508160025f8381526020019081526020015f205f6101000a81548173ffffffffffffffffffffffffffffffffffffffff021916908373ffffffffffffffffffffffffffffffffffffffff160217905550808273ffffffffffffffffffffffffffffffffffffffff165f73ffffffffffffffffffffffffffffffffffffffff167fddf252ad1be2c89b69c2b068fc378daa952ba7f163c4a11628f55a4df523b3ef60405160405180910390a46116435f83836001611798565b5050565b61165082611752565b61168f576040517f08c379a000000000000000000000000000000000000000000000000000000000815260040161168690612964565b60405180910390fd5b8060065f8481526020019081526020015f2090816116ad9190612b1f565b507ff8e1a15aba9398e019f0b49df1a4fde98ee17ae345cb5f6b5e2c27f5033e8ce7826040516116dd9190611e73565b60405180910390a15050565b5f7f01ffc9a7000000000000000000000000000000000000000000000000000000007bffffffffffffffffffffffffffffffffffffffffffffffffffffffff1916827bffffffffffffffffffffffffffffffffffffffffffffffffffffffff1916149050919050565b5f8073ffffffffffffffffffffffffffffffffffffffff166117738361119d565b73ffffffffffffffffffffffffffffffffffffffff1614159050919050565b50505050565b50505050565b5f6117be8473ffffffffffffffffffffffffffffffffffffffff166119ea565b15611913578373ffffffffffffffffffffffffffffffffffffffff1663150b7a026117e7610d60565b8786866040518563ffffffff1660e01b81526004016118099493929190612c40565b6020604051808303815f875af192505050801561184457506040513d601f19601f820116820180604052508101906118419190612c9e565b60015b6118c3573d805f8114611872576040519150601f19603f3d011682016040523d82523d5f602084013e611877565b606091505b505f8151036118bb576040517f08c379a00000000000000000000000000000000000000000000000000000000081526004016118b290612806565b60405180910390fd5b805181602001fd5b63150b7a0260e01b7bffffffffffffffffffffffffffffffffffffffffffffffffffffffff1916817bffffffffffffffffffffffffffffffffffffffffffffffffffffffff191614915050611918565b600190505b949350505050565b60605f600161192e84611a0c565b0190505f8167ffffffffffffffff81111561194c5761194b611efc565b5b6040519080825280601f01601f19166020018201604052801561197e5781602001600182028036833780820191505090505b5090505f82602001820190505b6001156119df578080600190039150507f3031323334353637383961626364656600000000000000000000000000000000600a86061a8153600a85816119d4576119d3612cc9565b5b0494505f850361198b575b819350505050919050565b5f808273ffffffffffffffffffffffffffffffffffffffff163b119050919050565b5f805f90507a184f03e93ff9f4daa797ed6e38ed64bf6a1f0100000000000000008310611a68577a184f03e93ff9f4daa797ed6e38ed64bf6a1f0100000000000000008381611a5e57611a5d612cc9565b5b0492506040810190505b6d04ee2d6d415b85acef81000000008310611aa5576d04ee2d6d415b85acef81000000008381611a9b57611a9a612cc9565b5b0492506020810190505b662386f26fc100008310611ad457662386f26fc100008381611aca57611ac9612cc9565b5b0492506010810190505b6305f5e1008310611afd576305f5e1008381611af357611af2612cc9565b5b0492506008810190505b6127108310611b22576127108381611b1857611b17612cc9565b5b0492506004810190505b60648310611b455760648381611b3b57611b3a612cc9565b5b0492506002810190505b600a8310611b54576001810190505b80915050919050565b5f604051905090565b5f80fd5b5f80fd5b5f7fffffffff0000000000000000000000000000000000000000000000000000000082169050919050565b611ba281611b6e565b8114611bac575f80fd5b50565b5f81359050611bbd81611b99565b92915050565b5f60208284031215611bd857611bd7611b66565b5b5f611be584828501611baf565b91505092915050565b5f8115159050919050565b611c0281611bee565b82525050565b5f602082019050611c1b5f830184611bf9565b92915050565b5f81519050919050565b5f82825260208201905092915050565b5f5b83811015611c58578082015181840152602081019050611c3d565b5f8484015250505050565b5f601f19601f8301169050919050565b5f611c7d82611c21565b611c878185611c2b565b9350611c97818560208601611c3b565b611ca081611c63565b840191505092915050565b5f6020820190508181035f830152611cc38184611c73565b905092915050565b5f819050919050565b611cdd81611ccb565b8114611ce7575f80fd5b50565b5f81359050611cf881611cd4565b92915050565b5f60208284031215611d1357611d12611b66565b5b5f611d2084828501611cea565b91505092915050565b5f73ffffffffffffffffffffffffffffffffffffffff82169050919050565b5f611d5282611d29565b9050919050565b611d6281611d48565b82525050565b5f602082019050611d7b5f830184611d59565b92915050565b611d8a81611d48565b8114611d94575f80fd5b50565b5f81359050611da581611d81565b92915050565b5f8060408385031215611dc157611dc0611b66565b5b5f611dce85828601611d97565b9250506020611ddf85828601611cea565b9150509250929050565b5f805f60608486031215611e0057611dff611b66565b5b5f611e0d86828701611d97565b9350506020611e1e86828701611d97565b9250506040611e2f86828701611cea565b9150509250925092565b5f60208284031215611e4e57611e4d611b66565b5b5f611e5b84828501611d97565b91505092915050565b611e6d81611ccb565b82525050565b5f602082019050611e865f830184611e64565b92915050565b611e9581611bee565b8114611e9f575f80fd5b50565b5f81359050611eb081611e8c565b92915050565b5f8060408385031215611ecc57611ecb611b66565b5b5f611ed985828601611d97565b9250506020611eea85828601611ea2565b9150509250929050565b5f80fd5b5f80fd5b7f4e487b71000000000000000000000000000000000000000000000000000000005f52604160045260245ffd5b611f3282611c63565b810181811067ffffffffffffffff82111715611f5157611f50611efc565b5b80604052505050565b5f611f63611b5d565b9050611f6f8282611f29565b919050565b5f67ffffffffffffffff821115611f8e57611f8d611efc565b5b611f9782611c63565b9050602081019050919050565b828183375f83830152505050565b5f611fc4611fbf84611f74565b611f5a565b905082815260208101848484011115611fe057611fdf611ef8565b5b611feb848285611fa4565b509392505050565b5f82601f83011261200757612006611ef4565b5b8135612017848260208601611fb2565b91505092915050565b5f805f806080858703121561203857612037611b66565b5b5f61204587828801611d97565b945050602061205687828801611d97565b935050604061206787828801611cea565b925050606085013567ffffffffffffffff81111561208857612087611b6a565b5b61209487828801611ff3565b91505092959194509250565b5f67ffffffffffffffff8211156120ba576120b9611efc565b5b6120c382611c63565b9050602081019050919050565b5f6120e26120dd846120a0565b611f5a565b9050828152602081018484840111156120fe576120fd611ef8565b5b612109848285611fa4565b509392505050565b5f82601f83011261212557612124611ef4565b5b81356121358482602086016120d0565b91505092915050565b5f805f6060848603121561215557612154611b66565b5b5f61216286828701611d97565b935050602084013567ffffffffffffffff81111561218357612182611b6a565b5b61218f86828701612111565b92505060406121a086828701611cea565b9150509250925092565b5f80604083850312156121c0576121bf611b66565b5b5f6121cd85828601611d97565b92505060206121de85828601611d97565b9150509250929050565b7f4e487b71000000000000000000000000000000000000000000000000000000005f52602260045260245ffd5b5f600282049050600182168061222c57607f821691505b60208210810361223f5761223e6121e8565b5b50919050565b7f4552433732313a20617070726f76616c20746f2063757272656e74206f776e655f8201527f7200000000000000000000000000000000000000000000000000000000000000602082015250565b5f61229f602183611c2b565b91506122aa82612245565b604082019050919050565b5f6020820190508181035f8301526122cc81612293565b9050919050565b7f4552433732313a20617070726f76652063616c6c6572206973206e6f7420746f5f8201527f6b656e206f776e6572206f7220617070726f76656420666f7220616c6c000000602082015250565b5f61232d603d83611c2b565b9150612338826122d3565b604082019050919050565b5f6020820190508181035f83015261235a81612321565b9050919050565b7f4552433732313a2063616c6c6572206973206e6f7420746f6b656e206f776e655f8201527f72206f7220617070726f76656400000000000000000000000000000000000000602082015250565b5f6123bb602d83611c2b565b91506123c682612361565b604082019050919050565b5f6020820190508181035f8301526123e8816123af565b9050919050565b7f4552433732313a20696e76616c696420746f6b656e20494400000000000000005f82015250565b5f612423601883611c2b565b915061242e826123ef565b602082019050919050565b5f6020820190508181035f83015261245081612417565b9050919050565b7f4e6f7420656e6f7567682045544820746f20627579207469636b6574000000005f82015250565b5f61248b601c83611c2b565b915061249682612457565b602082019050919050565b5f6020820190508181035f8301526124b88161247f565b9050919050565b7f596f7520616c7265616479206f776e2074686973207469636b657400000000005f82015250565b5f6124f3601b83611c2b565b91506124fe826124bf565b602082019050919050565b5f6020820190508181035f830152612520816124e7565b9050919050565b7f4552433732313a2061646472657373207a65726f206973206e6f7420612076615f8201527f6c6964206f776e65720000000000000000000000000000000000000000000000602082015250565b5f612581602983611c2b565b915061258c82612527565b604082019050919050565b5f6020820190508181035f8301526125ae81612575565b9050919050565b5f81905092915050565b5f6125c982611c21565b6125d381856125b5565b93506125e3818560208601611c3b565b80840191505092915050565b5f6125fa82856125bf565b915061260682846125bf565b91508190509392505050565b7f4552433732313a207472616e736665722066726f6d20696e636f7272656374205f8201527f6f776e6572000000000000000000000000000000000000000000000000000000602082015250565b5f61266c602583611c2b565b915061267782612612565b604082019050919050565b5f6020820190508181035f83015261269981612660565b9050919050565b7f4552433732313a207472616e7366657220746f20746865207a65726f206164645f8201527f7265737300000000000000000000000000000000000000000000000000000000602082015250565b5f6126fa602483611c2b565b9150612705826126a0565b604082019050919050565b5f6020820190508181035f830152612727816126ee565b9050919050565b7f4552433732313a20617070726f766520746f2063616c6c6572000000000000005f82015250565b5f612762601983611c2b565b915061276d8261272e565b602082019050919050565b5f6020820190508181035f83015261278f81612756565b9050919050565b7f4552433732313a207472616e7366657220746f206e6f6e2045524337323152655f8201527f63656976657220696d706c656d656e7465720000000000000000000000000000602082015250565b5f6127f0603283611c2b565b91506127fb82612796565b604082019050919050565b5f6020820190508181035f83015261281d816127e4565b9050919050565b7f4552433732313a206d696e7420746f20746865207a65726f20616464726573735f82015250565b5f612858602083611c2b565b915061286382612824565b602082019050919050565b5f6020820190508181035f8301526128858161284c565b9050919050565b7f4552433732313a20746f6b656e20616c7265616479206d696e746564000000005f82015250565b5f6128c0601c83611c2b565b91506128cb8261288c565b602082019050919050565b5f6020820190508181035f8301526128ed816128b4565b9050919050565b7f45524337323155524953746f726167653a2055524920736574206f66206e6f6e5f8201527f6578697374656e7420746f6b656e000000000000000000000000000000000000602082015250565b5f61294e602e83611c2b565b9150612959826128f4565b604082019050919050565b5f6020820190508181035f83015261297b81612942565b9050919050565b5f819050815f5260205f209050919050565b5f6020601f8301049050919050565b5f82821b905092915050565b5f600883026129de7fffffffffffffffffffffffffffffffffffffffffffffffffffffffffffffffff826129a3565b6129e886836129a3565b95508019841693508086168417925050509392505050565b5f819050919050565b5f612a23612a1e612a1984611ccb565b612a00565b611ccb565b9050919050565b5f819050919050565b612a3c83612a09565b612a50612a4882612a2a565b8484546129af565b825550505050565b5f90565b612a64612a58565b612a6f818484612a33565b505050565b5b81811015612a9257612a875f82612a5c565b600181019050612a75565b5050565b601f821115612ad757612aa881612982565b612ab184612994565b81016020851015612ac0578190505b612ad4612acc85612994565b830182612a74565b50505b505050565b5f82821c905092915050565b5f612af75f1984600802612adc565b1980831691505092915050565b5f612b0f8383612ae8565b9150826002028217905092915050565b612b2882611c21565b67ffffffffffffffff811115612b4157612b40611efc565b5b612b4b8254612215565b612b56828285612a96565b5f60209050601f831160018114612b87575f8415612b75578287015190505b612b7f8582612b04565b865550612be6565b601f198416612b9586612982565b5f5b82811015612bbc57848901518255600182019150602085019450602081019050612b97565b86831015612bd95784890151612bd5601f891682612ae8565b8355505b6001600288020188555050505b505050505050565b5f81519050919050565b5f82825260208201905092915050565b5f612c1282612bee565b612c1c8185612bf8565b9350612c2c818560208601611c3b565b612c3581611c63565b840191505092915050565b5f608082019050612c535f830187611d59565b612c606020830186611d59565b612c6d6040830185611e64565b8181036060830152612c7f8184612c08565b905095945050505050565b5f81519050612c9881611b99565b92915050565b5f60208284031215612cb357612cb2611b66565b5b5f612cc084828501612c8a565b91505092915050565b7f4e487b71000000000000000000000000000000000000000000000000000000005f52601260045260245ffdfea264697066735822122092c31a31681d128665ac52d426b61f9804407b8dbe599582908b1d325f41e9f664736f6c63430008150033",
  "immutableReferences": {},
  "source": "// SPDX-License-Identifier: MIT\r\npragma solidity ^0.8.21;\r\n\r\nimport \"@openzeppelin/contracts/token/ERC721/extensions/ERC721URIStorage.sol\";\r\nimport \"@openzeppelin/contracts/utils/Counters.sol\";\r\n\r\ncontract TicketNFT is ERC721URIStorage {\r\n    using Counters for Counters.Counter;\r\n    Counters.Counter private _tokenIds;\r\n\r\n    // \r\n    mapping(uint256 => uint256) public ticketPrices;\r\n\r\n    constructor() ERC721(\"NFTTicket\", \"TKT\") {}\r\n\r\n    // \r\n    function mintTicket(address recipient, string memory tokenURI, uint256 price) public returns (uint256) {\r\n        _tokenIds.increment();\r\n        uint256 newTicketId = _tokenIds.current();\r\n\r\n        _mint(recipient, newTicketId);\r\n        _setTokenURI(newTicketId, tokenURI);\r\n        ticketPrices[newTicketId] = price;\r\n\r\n        return newTicketId;\r\n    }\r\n\r\n    // \r\n    function buyTicket(uint256 ticketId) public payable {\r\n        address owner = ownerOf(ticketId);\r\n        uint256 price = ticketPrices[ticketId];\r\n        require(msg.value >= price, \"Not enough ETH to buy ticket\");\r\n        require(msg.sender != owner, \"You already own this ticket\");\r\n\r\n        //  ETH \r\n        payable(owner).transfer(msg.value);\r\n\r\n        // \r\n        _transfer(owner, msg.sender, ticketId);\r\n    }\r\n\r\n}\r\n",
  "sourcePath": "C:\\Users\\\\Desktop\\NFTticket\\contracts\\TicketNFT.sol",
  "compiler": {
    "name": "solc",
    "version": "0.8.21+commit.d9974bed.Emscripten.clang"
  },
  "schemaVersion": "3.4.16",
  "updatedAt": "2025-05-24T13:21:27.220Z",
  "devdoc": {
    "events": {
      "Approval(address,address,uint256)": {
        "details": "Emitted when `owner` enables `approved` to manage the `tokenId` token."
      },
      "ApprovalForAll(address,address,bool)": {
        "details": "Emitted when `owner` enables or disables (`approved`) `operator` to manage all of its assets."
      },
      "BatchMetadataUpdate(uint256,uint256)": {
        "details": "This event emits when the metadata of a range of tokens is changed. So that the third-party platforms such as NFT market could timely update the images and related attributes of the NFTs."
      },
      "MetadataUpdate(uint256)": {
        "details": "This event emits when the metadata of a token is changed. So that the third-party platforms such as NFT market could timely update the images and related attributes of the NFT."
      },
      "Transfer(address,address,uint256)": {
        "details": "Emitted when `tokenId` token is transferred from `from` to `to`."
      }
    },
    "kind": "dev",
    "methods": {
      "approve(address,uint256)": {
        "details": "See {IERC721-approve}."
      },
      "balanceOf(address)": {
        "details": "See {IERC721-balanceOf}."
      },
      "getApproved(uint256)": {
        "details": "See {IERC721-getApproved}."
      },
      "isApprovedForAll(address,address)": {
        "details": "See {IERC721-isApprovedForAll}."
      },
      "name()": {
        "details": "See {IERC721Metadata-name}."
      },
      "ownerOf(uint256)": {
        "details": "See {IERC721-ownerOf}."
      },
      "safeTransferFrom(address,address,uint256)": {
        "details": "See {IERC721-safeTransferFrom}."
      },
      "safeTransferFrom(address,address,uint256,bytes)": {
        "details": "See {IERC721-safeTransferFrom}."
      },
      "setApprovalForAll(address,bool)": {
        "details": "See {IERC721-setApprovalForAll}."
      },
      "supportsInterface(bytes4)": {
        "details": "See {IERC165-supportsInterface}"
      },
      "symbol()": {
        "details": "See {IERC721Metadata-symbol}."
      },
      "tokenURI(uint256)": {
        "details": "See {IERC721Metadata-tokenURI}."
      },
      "transferFrom(address,address,uint256)": {
        "details": "See {IERC721-transferFrom}."
      }
    },
    "version": 1
  },
  "userdoc": {
    "kind": "user",
    "methods": {},
    "version": 1
  }
}